:100000000C9473000C949B000C949B000C949B002C
:100010000C949B000C949B000C949B000C949B00F4
:100020000C949B000C949B000C949B000C949B00E4
:100030000C949B000C949B000C949B000C949B00D4
:100040000C947F030C949B000C94A2020C947C02F1
:100050000C949B000C949B000C949B000C949B00B4
:100060000C949B000C949B00B5082C09F608DE0844
:1000700041084108AF084108AF084108AF08AF0880
:10008000AF084108AF08AF080000000024002700B7
:100090002A0000000000250028002B0000000000BE
:1000A00023002600290004040404040404040202BA
:1000B00002020202030303030303010204081020E7
:1000C00040800102040810200102040810200000F2
:1000D0000008000201000003040700000000000007
:1000E0000000030BF70A11241FBECFEFD8E0DEBFDC
:1000F000CDBF22E0A8E3B1E001C01D92A73CB2074A
:10010000E1F711E0A0E0B1E0EEE0FCE102C0059013
:100110000D92A833B107D9F710E0C2E7D0E004C0D0
:100120002197FE010E94ED0BC137D107C9F70E944C
:10013000B3050C94FA0D0C940000CF92DF92EF926D
:10014000FF920F931F93CF93DF936C017A018B0182
:10015000C0E0D0E0CE15DF0589F0D8016D918D01AA
:10016000D601ED91FC910190F081E02DC601099539
:10017000892B11F47E0102C02196ECCFC701DF91DB
:10018000CF911F910F91FF90EF90DF90CF90089546
:10019000FC01538D448D252F30E0842F90E0821B8D
:1001A000930B541710F0CF96089501970895FC0112
:1001B000918D828D981761F0828DDF01A80FB11D9E
:1001C0005D968C91928D9F5F9F73928F90E00895C2
:1001D0008FEF9FEF0895FC01918D828D981731F07C
:1001E000828DE80FF11D858D90E008958FEF9FEFD0
:1001F0000895FC01918D228D892F90E0805C9F4FA6
:10020000821B91098F739927089583E591E00E94DD
:10021000F90021E0892B09F420E0822F0895FC01E8
:10022000848DDF01A80FB11DA35ABF4F2C91848D7F
:1002300090E001968F739927848FA689B7892C93B4
:10024000A089B1898C91837080648C93938D848D07
:10025000981306C00288F389E02D80818F7D80830A
:100260000895EF92FF920F931F93CF93DF93EC01CA
:1002700081E0888F9B8D8C8D981305C0E889F98962
:10028000808185FD26C0F62E0B8D10E00F5F1F4F7D
:100290000F731127E02E8C8DE8120CC00FB607FCEF
:1002A000FACFE889F989808185FFF5CFCE010E94D8
:1002B0000F01F1CF8B8DFE01E80FF11DE35AFF4FC7
:1002C000F0829FB7F8940B8FEA89FB898081806266
:1002D0000AC09FB7F894EE89FF896083E889F9899D
:1002E00080818370806480839FBF81E090E0DF9194
:1002F000CF911F910F91FF90EF900895CF93DF93CF
:10030000EC01888D8823C9F0EA89FB89808185FD0D
:1003100005C0A889B9898C9186FD0FC00FB607FC6E
:10032000F5CF808185FFF2CFA889B9898C9185FFAF
:10033000EDCFCE010E940F01E7CFDF91CF9108955D
:1003400080E090E0892B29F00E94050181110C9436
:1003500000000895833081F028F4813099F08230D4
:10036000A1F008958730A9F08830B9F08430D1F435
:10037000809180008F7D03C0809180008F77809373
:100380008000089584B58F7702C084B58F7D84BDC9
:1003900008958091B0008F7703C08091B0008F7D69
:1003A0008093B0000895089580E090E008950F9341
:1003B0001F93CF93DF93EC0188819981009729F0F7
:1003C0002A813B812617370788F48B016F5F7F4FA7
:1003D0000E94200D009761F0998388831B830A8314
:1003E0002C813D81232B11F4FC01108281E001C09E
:1003F00080E0DF91CF911F910F910895CF93DF930C
:10040000EC0188819981009711F00E94880C198273
:1004100018821D821C821B821A82DF91CF9108955F
:10042000EF92FF920F931F93CF93DF9300D0CDB73E
:10043000DEB78C0169831A82FC01E480F580FFEF4E
:10044000EF1AFF0AB7010E94D701882381F0F80153
:100450002081318184819581BE016F5F7F4F820F42
:10046000931F0E94F30DF801F582E48203C0C801D6
:100470000E94FE01C8010F900F90DF91CF911F9154
:100480000F91FF90EF900895EF92FF920F931F93BB
:10049000CF93DF93EC017B018A01BA010E94D7015F
:1004A000811104C0CE010E94FE0107C01D830C8390
:1004B000B701888199810E94F30DCE01DF91CF9120
:1004C0001F910F91FF90EF900895CF93DF93EC0170
:1004D000FB018617970761F06081718161157105D5
:1004E00029F0448155810E94440202C00E94FE010D
:1004F000CE01DF91CF9108951F920F920FB60F9208
:1005000011242F933F934F935F936F937F938F9318
:100510009F93AF93BF93EF93FF9383E591E00E9486
:100520000F01FF91EF91BF91AF919F918F917F91BB
:100530006F915F914F913F912F910F900FBE0F9050
:100540001F9018951F920F920FB60F9211242F93A0
:100550008F939F93EF93FF93E0916301F091640178
:100560008081E0916901F0916A0182FD12C0908161
:1005700080916C018F5F8F7320916D01821751F014
:10058000E0916C01F0E0ED5AFE4F958F80936C0185
:1005900001C08081FF91EF919F918F912F910F90DA
:1005A0000FBE0F901F901895CF93DF93282F30E048
:1005B000F901E253FF4F8491F901E654FF4FD491C2
:1005C000F901EA55FF4FC491CC2391F081110E94AB
:1005D000AA01EC2FF0E0EE0FFF1FE456FF4FA591AC
:1005E000B491EC91ED2381E090E021F480E002C031
:1005F00080E090E0DF91CF9108951F93CF93DF9338
:10060000282F30E0F901E253FF4F8491F901E654BD
:10061000FF4FD491F901EA55FF4FC491CC23C9F0A3
:10062000162F81110E94AA01EC2FF0E0EE0FFF1FA0
:10063000EE56FF4FA591B4918FB7F894111105C0F4
:100640009C91ED2FE095E92302C0EC91ED2BEC930A
:100650008FBFDF91CF911F910895CF93DF93EC016E
:1006600060E08E810E94FD0261E08E810E94FD02A9
:1006700060E08E810E94FD028BE891E00197F1F726
:10068000DF91CF910895CF93DF9390E0FC01E65482
:10069000FF4F2491FC01EA55FF4F8491882361F1BB
:1006A00090E0880F991FFC01E857FF4FC591D49146
:1006B000FC01EE56FF4FA591B491611109C09FB79F
:1006C000F8948881209582238883EC912E230BC097
:1006D000623061F49FB7F8943881822F809583232C
:1006E0008883EC912E2B2C939FBF06C08FB7F89474
:1006F000E8812E2B28838FBFDF91CF9108951F9221
:100700000F920FB60F9211242F933F938F939F93C5
:10071000AF93BF938091430190914401A091450113
:10072000B09146013091420123E0230F2D3720F490
:100730000196A11DB11D05C026E8230F0296A11D3B
:10074000B11D209342018093430190934401A093F3
:100750004501B093460180913E0190913F01A091E7
:100760004001B09141010196A11DB11D80933E0150
:1007700090933F01A0934001B0934101BF91AF918D
:100780009F918F913F912F910F900FBE0F901F90CF
:100790001895CF92DF92EF92FF920F931F93CF9312
:1007A000DF937C016C0187E0C80ED11CC0E0D0E073
:1007B000062F10E0B8010C2E02C0759567950A94BB
:1007C000E2F76170F60181916F010E94FD022196AE
:1007D000C430D10579F7C701DF91CF911F910F91F7
:1007E000FF90EF90DF90CF900C942D03CF92DF928B
:1007F000EF92FF920F931F93CF93DF93EC01F62EAE
:10080000642F8C810E94FD028D818F3F19F060E082
:100810000E94FD028F850F2D10E084FF25C06E0120
:1008200087E0C80ED11CE12CF12CB8010E2C02C0BF
:10083000759567950A94E2F76170F60181916F01F1
:100840000E94FD02FFEFEF1AFF0A88E0E816F104AC
:1008500061F7CE01DF91CF911F910F91FF90EF9043
:10086000DF90CF900C942D03B80184E075956795C7
:100870008A95E1F7CE010E94C9036F2DCE01DF9169
:10088000CF911F910F91FF90EF90DF90CF900C943C
:10089000C90341E00E94F60381E090E0089540E042
:1008A0000C94F6036D3F71053CF46A3F710554F4F6
:1008B000683F710589F406C09B012E5F3109223023
:1008C000310550F4DC018D919C91DC01ED91FC919E
:1008D0000190F081E02D0994089587FF0DC09CE000
:1008E000980F923048F0982F9B7F993F29F0803FD6
:1008F00008F4807F90E0089580E090E008959C01E6
:100900008F7C8038910561F0203D310549F081E010
:10091000203E310539F0203C310521F080E008957A
:1009200081E008950895DC01ED91FC910190F08142
:10093000E02D0994EF92FF920F931F93CF93DF93D3
:10094000EC01623018F08F8588608F876B8B1C8A72
:1009500080E48D8B80E18E8B80E58F8B61E08C81D4
:100960000E9443038D818F3F19F061E00E94430391
:1009700061E08E810E9443037E0187E0E80EF11C56
:1009800000E010E08F8584FD03C084E090E002C0A9
:1009900088E090E0081719074CF461E0F7018191B5
:1009A0007F010E9443030F5F1F4FECCF8BE39DE05D
:1009B0000197F1F760E08C810E94FD0260E08E817A
:1009C0000E94FD028D818F3F19F060E00E94FD02C0
:1009D0006F8564FD1DC063E0CE010E94C9030BE476
:1009E00016E4C8010197F1F763E0CE010E94C90344
:1009F000C8010197F1F763E0CE010E94C90383E5C6
:100A000092E00197F1F762E0CE010E94C90316C09F
:100A10006062CE010E944F048BE496E40197F1F7E7
:100A20006F856062CE010E944F0483E592E00197DA
:100A3000F1F76F856062CE010E944F046F8560629E
:100A4000CE010E944F0484E0888B6CE0CE010E94AE
:100A50004F0461E0CE010E944F048BE39FE10197B8
:100A6000F1F782E0898B66E0CE01DF91CF911F9193
:100A70000F91FF90EF900C944F04843008F083E0C6
:100A80009091BE02891710F08FEF890FE82FF0E0E8
:100A9000E555FD4F648960688BEA92E00C944F0441
:100AA000EF92FF921F93CF93DF931F92CDB7DEB7E4
:100AB0007C01162F2150203108F04EC080E8E81646
:100AC000F1040CF449C0A1EEEA16F104ACF58091F2
:100AD000140290911502DC01ED91FC916E2D622BB8
:100AE0000190F081E02D4983099580911402909145
:100AF0001502DC01ED91FC91612F6F770190F0817F
:100B0000E02D0995E894E4F84981B0ECEB16F10486
:100B100019F18091140290911502DC01ED91FC9184
:100B2000642F6F770190F081E02D0F90DF91CF91CE
:100B30001F91FF90EF900994C701885F9109089772
:100B400058F4B70184E192E00F90DF91CF911F91AB
:100B5000FF90EF900C9452040F90DF91CF911F9172
:100B6000FF90EF900895CF93DF9300D000D000D096
:100B7000CDB7DEB7789484B5826084BD84B58160DA
:100B800084BD85B5826085BD85B5816085BD809158
:100B90006E00816080936E001092810080918100D0
:100BA00082608093810080918100816080938100C8
:100BB000809180008160809380008091B10084608A
:100BC0008093B1008091B00081608093B0008091EB
:100BD0007A00846080937A0080917A0082608093AA
:100BE0007A0080917A00816080937A0080917A0007
:100BF000806880937A001092C100E0911402F09115
:100C00001502A089B18982E08C93A485B5851C92D8
:100C1000A685B7858FE38C93108EA489B58986E06D
:100C20008C93A289B3898C9180618C93A289B389BA
:100C30008C9188608C93A289B3898C9180688C9305
:100C40000288F389E02D80818F7D808310921602C7
:100C5000109218021092170210921F0210921E0298
:100C600010921D0210921C028FEF9FEF90932102B1
:100C70008093200290932302809322021092AA0272
:100C8000109227021092260210922502109228023A
:100C9000109229021092240262E08BEA92E00E94F4
:100CA0009A0480E00E943D054BE050E064E271E070
:100CB0008BEA92E00E949D0081E00E943D0547E0A2
:100CC00050E060E371E08BEA92E00E949D0062E0F8
:100CD0008CE00E94430362E08AE00E94430362E0EA
:100CE0008BE00E94430362E089E00E94430301E03D
:100CF00060E8C62ED12C70EF272E312CE2E04E2E6C
:100D0000512C88248394912CF090160220E12F1509
:100D100008F4B9C18091140290911502DC01ED91A3
:100D2000FC910084F185E02D0995892B09F4ABC174
:100D30008091140290911502DC01ED91FC910284E6
:100D4000F385E02D09953C018B7F893F09F49BC118
:100D500020911E0230911F022115310509F0ADC00E
:100D60006092190210911702812F0E946D040E9457
:100D70007F04882351F067FC08C010931902609229
:100D80001A0290921F0280921E0210911902812F66
:100D90000E946D04813F910509F45EC074F5803BAB
:100DA000910509F45EC06CF48039910509F459C0CD
:100DB000803A910509F455C08038910509F0D7C0F3
:100DC00050C0803D910509F447C02CF4803C91054A
:100DD00009F442C0CCC0803E910509F442C0803F76
:100DE000910509F0C4C0D0921D02C0921C0210925D
:100DF0001702F0EFF0932A023AC0883F9105B9F04C
:100E000044F4833F910541F164F1863F910579F007
:100E1000AEC08A3F91050CF4AAC08D3F91053CF00D
:100E20009C012E5F31092230310508F0A0C090935B
:100E30002702809326021092250210922802109217
:100E400029020093AA0210921F0210921E02109211
:100E50001D0210921C02EFC050921D0240921C0213
:100E600006C0E3E0F0E0F0931D02E0931C02209145
:100E70001E0230911F0240911C0250911D024150F0
:100E800051092417350708F4CFC0909327028093A7
:100E90002602812F8F708F5F8093250280911A0226
:100EA000809328021092290210921F0210921E02B3
:100EB00010921D0210921C0221C067FE42C0C301A5
:100EC00099278D3F910554F48A3F91056CF4873F33
:100ED0009105B9F0883F9105A1F506C0AC014E5FC0
:100EE00051094230510568F59093270280932602FC
:100EF0001092280210922902109225020093AA0251
:100F00009AC080912A02803F91F5C9010196F901AA
:100F1000E051FE4F27EF22AF3092270220922602A7
:100F20008093280290932902109225020093AA022E
:100F300010921F0210921E0210921D0210921C02AB
:100F400070C080911902F901E051FE4F803FD1F449
:100F500062AE60901C0270901D02C30101972817B9
:100F6000390708F461C010911902103F69F410921A
:100F70001F0210921E0210921D0210921C0210926B
:100F8000170281C061A6E5CF812F0E946D045C012C
:100F900090932702809326020E947F04882331F0D9
:100FA000812F8F708F5F8093250202C010922502DF
:100FB00080911A028093280233E06316710419F4B9
:100FC00080911B0201C080E08093290210921F02D1
:100FD00010921E0210921D0210921C020093AA028F
:100FE00080EBA816B104D1F06CF4B0E9AB16B104F3
:100FF000A9F0E0EAAE16B10489F0F0E8AF16B1044A
:1010000081F40CC020EDA216B10441F030EEA3161D
:10101000B10421F080ECA816B10419F41093170262
:101020000AC01092170207C02F5F3F4F30931F0274
:1010300020931E0228C080912602909127028039B9
:10104000910529F480912902882309F4D7C1809160
:101050002602909127029C01205831092136310542
:1010600008F0D1C1209125022F1509F4CCC1FF2031
:1010700009F4C9C110E040912402342F317040FDC1
:1010800035C011110EC18CE00E94D402892B39F4B5
:101090002CE040E062E080EC90E00E94500589E0A6
:1010A0000E94D402892B39F429E040E062E080EC10
:1010B00090E00E9450058AE00E94D402892B39F406
:1010C0002AE040E062E080EC90E00E9450058BE076
:1010D0000E94D402892B39F42BE040E062E080ECDE
:1010E00090E00E9450050E94A0010ECE842F8E7FBA
:1010F00041F28091260290912702BC01605871094B
:101100006136710508F5209125022F1519F031E09F
:10111000F11030E0469550E04230510541F0433047
:10112000510549F04130510509F0ABCF06C03323DA
:1011300009F4A7CF02C03111A4CF409129026091D8
:1011400028020E9450059DCFFC01E05FF109E031CB
:10115000F10508F096CFEC5CFF4F0C94ED0BBC0151
:1011600084E192E00E9452048CCFE0902902F12C9D
:10117000FE2CEE2480912802E82AE1E8EE16F10424
:1011800018F030E8E32EF12C612C712C6E147F04E2
:1011900009F477CF8091140290911502DC01ED9152
:1011A000FC91D301A051BE4F0190F081E02DDA9661
:1011B0006C910995BFEF6B1A7B0AE8CFF09028027B
:1011C0008091140290911502DC01ED91FC91019047
:1011D000F081E02D63EF09956F2D6F7770E08091BE
:1011E0001402909115020E9493044BCFE0902902C3
:1011F000B0E8EB9E7001112480912802E82A8091CA
:10120000140290911502DC01ED91FC910190F081A6
:10121000E02D62EF09958091140290911502DC0196
:10122000ED91FC91B7016F7777270190F081E02D68
:1012300009958091140290911502DC01ED91FC91C9
:10124000B701660F672F661F770B71956F7777274A
:101250000190F081E02D23C0809128028770B0E1D9
:101260008B9FC0011124209129022F70F22EF82AA1
:101270008091140290911502DC01ED91FC91019096
:10128000F081E02D61EF0995809114029091150293
:10129000DC01ED91FC910190F081E02D6F2D09951D
:1012A000F0CE209126023091270230933D01209309
:1012B0003C01E0902802F12CF0923B01E0923A01CF
:1012C0008091290290E09093390180933801273072
:1012D000310509F0D8CEB0E5EB16F1040CF0D3CE11
:1012E00040E050E067E371E08DE491E00E94440249
:1012F00040E050E067E371E087E491E00E9444023F
:1013000080912B028D3709F0BECEE9E1EE16F10493
:101310000CF4B9CE90E3E92E92E0F92ED7011D919D
:101320007D011A8219821C821B821E821D826DE43D
:1013300071E0CE0101960E946502612FCE010196F7
:101340000E941002BC018DE491E00E946502898137
:101350009A810E94880CB0E4EB16B2E0FB06F1F62D
:1013600080E4E82E82E0F82EF70111917F011A82C5
:1013700019821C821B821E821D8267E471E0CE01ED
:1013800001960E946502612FCE0101960E94100213
:10139000BC0187E491E00E94650289819A810E94E4
:1013A000880CFFE4EF16F2E0FF06F1F661E08BEA4D
:1013B00092E00E944F048BE39FE10197F1F780E0F8
:1013C0000E943D05409151015091520160914D01A3
:1013D00070914E018BEA92E00E949D0081E00E9494
:1013E0003D0540914B0150914C0160914701709136
:1013F00048018BEA92E00E949D0045CED0922702E0
:10140000C092260224CE813F9105B1F5E091000201
:10141000F09101020CC08B3F91050CF0C7C0833FD7
:10142000910509F0A4C0E0910402F0910502309703
:1014300009F18091280209951DC0813D91050CF4A8
:1014400054C0803E910509F060C0E091FC01F0912C
:10145000FD01309779F0609129026F77A0E86A9FCB
:10146000B0011124809128028F77682B70528091EF
:101470002502099511E0FFCD823F91050CF061C076
:10148000803B9105B1F4E091F601F091F70107C0BE
:101490008038910579F7E091F001F091F1013097F2
:1014A00049F3409129026091280280912502099513
:1014B000E1CF813B910584F48039910529F4E091D5
:1014C000F201F091F301EBCF803A910509F7E09139
:1014D000F401F091F501E3CF803D910509F0ADCF26
:1014E000E091FA01F091FB0107C0803C910511F6F3
:1014F000E091F801F091F901309709F4BBCF6091C8
:101500002802809125020995B5CF803F910509F009
:10151000B1CFE091FE01F091FF01309709F4AACF1D
:101520006091290270E0762F662780912802682B4F
:101530006138710510F060E870E08AE292E0099588
:1015400099CF8A3F910509F066CFE0910A02F091A8
:101550000B0208C0883F910509F08CCFE09108028A
:10156000F0910902309709F485CF099583CF833F25
:101570009105A4F4E0910202F0910302309709F47E
:1015800079CF809129028F77B0E88B9FC001112419
:10159000209128022F77822B09956CCF863F9105E9
:1015A000C9F6E0910602F0910702DCCF8C3F91056D
:1015B00029F4E0910E02F0910F02D4CF8C3F9105F7
:1015C0002CF4E0910C02F0910D02CCCF8E3F9105EE
:1015D00029F4E0911002F0911102C4CF8F3F9105E0
:1015E00009F048CFE0911202F0911302BBCF809135
:1015F0004701909148010E94880C80914D01909183
:101600004E010C94880CCF93DF93C3E5D1E01B828D
:101610001A8288EE93E0A0E0B0E08C839D83AE83D5
:10162000BF838AE091E09983888385EC90E09D8771
:101630008C8784EC90E09F878E8780EC90E0998B7C
:10164000888B81EC90E09B8B8A8B82EC90E09D8B69
:101650008C8B86EC90E09F8B8E8B198E1A8E1B8E56
:101660001C8EEBEAF2E0138212828CE191E091830E
:10167000808382E084838FEF858383E0868384E0A8
:10168000878385E0808786E0818787E0828713866D
:10169000148615861686178661E0CF010E949A048B
:1016A000E0EFF1E0D5A3C4A316A217A210A615A6D9
:1016B00014A617A616A68FEF9FEF91AB80AB93AB46
:1016C00082AB83E08093240215AA17AA16AA10AE53
:1016D00011AE1092AA0280E8AAE2B2E0ED011992DE
:1016E0008A95E9F711821082138212821582148280
:1016F0001782168211861086138612861586148626
:1017000017861686118A108A138A128A158A148AF5
:10171000178A168A118E108E138E128E158E148EC5
:10172000178E168E11A210A213A212A2EDE4F1E000
:1017300011821082138212821582148240E050E0DE
:1017400067E371E0CF010E944402E7E4F1E0118217
:101750001082138212821582148240E050E067E307
:1017600071E0CF01DF91CF910C9444022F923F9210
:101770004F925F926F927F928F929F92AF92BF92A1
:10178000CF92DF92EF92FF920F931F93CF93DF934D
:10179000CDB7DEB7CA1BDB0B0FB6F894DEBF0FBEAA
:1017A000CDBF09942A88398848885F846E847D84F7
:1017B0008C849B84AA84B984C884DF80EE80FD80F9
:1017C0000C811B81AA81B981CE0FD11D0FB6F8946F
:1017D000DEBF0FBECDBFED010895EE0FFF1F0590D8
:1017E000F491E02D0994CF93DF938230910510F4AA
:1017F00082E090E0E091C502F091C60220E030E086
:10180000C0E0D0E0309711F140815181481759076D
:10181000C0F04817590761F482819381209719F02D
:101820009B838A832BC09093C6028093C50226C0F7
:101830002115310519F04217530718F49A01BE011A
:10184000DF01EF010280F381E02DDCCF21153105AE
:1018500009F1281B390B2430310590F412968D9133
:101860009C9113976115710521F0FB01938382838D
:1018700004C09093C6028093C502FD01329644C015
:10188000FD01E20FF31F81939193225031092D93B3
:101890003C933AC02091C3023091C402232B41F4FF
:1018A00020910201309103013093C4022093C302BE
:1018B00020910001309101012115310541F42DB72E
:1018C0003EB74091040150910501241B350BE09176
:1018D000C302F091C402E217F307A0F42E1B3F0BE2
:1018E0002817390778F0AC014E5F5F4F2417350792
:1018F00048F04E0F5F1F5093C4024093C302819380
:10190000919302C0E0E0F0E0CF01DF91CF91089524
:101910000F931F93CF93DF93009709F48CC0FC01C2
:101920003297138212820091C5021091C6020115EE
:10193000110581F420813181820F931F2091C30210
:101940003091C4022817390779F5F093C402E09367
:10195000C30271C0D80140E050E0AE17BF0750F499
:1019600012962D913C911397AD012115310509F186
:10197000D901F3CF9D01DA01338322836081718124
:10198000860F971F8217930769F4EC01288139812C
:10199000260F371F2E5F3F4F318320838A819B8123
:1019A00093838283452B29F4F093C602E093C5020A
:1019B00042C01396FC93EE931297ED014991599111
:1019C0009E01240F351FE217F30771F48081918186
:1019D000840F951F029611969C938E93828193811A
:1019E00013969C938E931297E0E0F0E0D801129644
:1019F0008D919C911397009719F0F8018C01F6CF07
:101A00008D919C9198012E5F3F4F820F931F2091E3
:101A1000C3023091C4022817390769F4309729F4BA
:101A20001092C6021092C50202C013821282109355
:101A3000C4020093C302DF91CF911F910F910895CB
:101A4000A0E0B0E0E6E2FDE00C94BA0BEC010097F8
:101A500021F4CB010E94F30BB8C0FC01E60FF71F85
:101A60009C0122503109E217F30708F4ACC0D901F8
:101A70000D911C91119706171707B0F0053011054D
:101A800008F49FC0C80104978617970708F499C007
:101A900002501109061B170B019311936D937C9350
:101AA000CF010E94880C8DC05B01A01AB10A4C01C5
:101AB000800E911EA091C502B091C60240E050E098
:101AC000E12CF12C109709F44AC0A815B905D1F5FD
:101AD0006D907C901197630182E0C80ED11CCA14EE
:101AE000DB0480F1A3014A195B096A0182E0C80E98
:101AF000D11C1296BC9012971396AC91B5E0CB1600
:101B0000D10440F0B282A38351834083D9016D9305
:101B10007C930AC00E5F1F4FC301800F911FF90114
:101B200091838083EB2DFA2FE114F10431F0D7017A
:101B30001396FC93EE93129744C0F093C602E09381
:101B4000C5023FC08D919C9111974817590708F421
:101B5000AC017D0112960D90BC91A02DB3CF809168
:101B6000C3029091C40288159905E1F446175707FE
:101B7000C8F48091000190910101009741F48DB764
:101B80009EB74091040150910501841B950BE81705
:101B9000F907C8F4F093C402E093C302F90171831A
:101BA00060830FC0CB010E94F30B7C01009759F0BA
:101BB000A801BE010E94EA0DCE010E94880CC70157
:101BC00004C0CE0102C080E090E0CDB7DEB7EEE009
:101BD0000C94D60BFB01DC0102C001900D92415028
:101BE0005040D8F70895FB01DC0101900D920020D0
:101BF000E1F7089510E0C2E7D0E004C0FE010E94C2
:0E1C0000ED0B2196C337D107C9F7F894FFCF3B
:101C0E000000C70280000000000031019D00C800E6
:101C1E007E01F900D700EB000000000049049D0092
:101C2E00D401D301506C65617365207761697400CE
:081C3E004C6F6164696E6700E0
:00000001FF
