:100000000C946D000C9495000C9495000C94950044
:100010000C9495000C9495000C9495000C9495000C
:100020000C9495000C9495000C9495000C949500FC
:100030000C9495000C9495000C9495000C949500EC
:100040000C94B6020C9495000C9422020C94FC01C2
:100050000C9495000C9495000C9495000C949500CC
:100060000C9495000C9495001E08970861084908A7
:10007000DF07DF071808DF071808DF071808180868
:100080001808DF071808180800000008000201001F
:100090000003040700000000000000000000000052
:1000A000250028002B0000000000240027002A0063
:1000B000040404040404040402020202020203030E
:1000C0000303030301020408102040800102040816
:1000D0001020010204081020B50911241FBECFEF23
:1000E000D8E0DEBFCDBF11E0A0E0B1E0E0EBF4E18D
:1000F00002C005900D92A033B107D9F722E0A0E32A
:10010000B1E001C01D92A93AB207E1F710E0CDE6D7
:10011000D0E004C02197FE010E944B0ACC36D107E3
:10012000C9F70E942C050C94560A0C940000CF923B
:10013000DF92EF92FF920F931F93CF93DF936C01A7
:100140007A018B01C0E0D0E0CE15DF0589F0D8013F
:100150006D918D01D601ED91FC910190F081E02D22
:10016000C6010995892B11F47E0102C02196ECCFBE
:10017000C701DF91CF911F910F91FF90EF90DF901A
:10018000CF900895FC01538D448D252F30E0842FAE
:1001900090E0821B930B541710F0CF9608950197AF
:1001A0000895FC01918D828D981761F0828DDF0199
:1001B000A80FB11D5D968C91928D9F5F9F73928F5A
:1001C00090E008958FEF9FEF0895FC01918D828D4F
:1001D000981731F0828DE80FF11D858D90E008951C
:1001E0008FEF9FEF0895FC01918D228D892F90E074
:1001F000805C9F4F821B91098F739927089589E333
:1002000091E00E94F30021E0892B09F420E0822F85
:100210000895FC01848DDF01A80FB11DA35ABF4FC3
:100220002C91848D90E001968F739927848FA689F5
:10023000B7892C93A089B1898C91837080648C9349
:10024000938D848D981306C00288F389E02D8081F8
:100250008F7D80830895EF92FF920F931F93CF932A
:10026000DF93EC0181E0888F9B8D8C8D981305C006
:10027000E889F989808185FD26C0F62E0B8D10E076
:100280000F5F1F4F0F731127E02E8C8DE8120CC0EB
:100290000FB607FCFACFE889F989808185FFF5CF91
:1002A000CE010E940901F1CF8B8DFE01E80FF11DF7
:1002B000E35AFF4FF0829FB7F8940B8FEA89FB89CE
:1002C000808180620AC09FB7F894EE89FF896083BD
:1002D000E889F98980818370806480839FBF81E091
:1002E00090E0DF91CF911F910F91FF90EF900895D3
:1002F000CF93DF93EC01888D8823C9F0EA89FB89CD
:10030000808185FD05C0A889B9898C9186FD0FC0C3
:100310000FB607FCF5CF808185FFF2CFA889B98998
:100320008C9185FFEDCFCE010E940901E7CFDF91CF
:10033000CF91089580E090E0892B29F00E94FF0082
:1003400081110C94000008953FB7F8948091350115
:1003500090913601A0913701B091380126B5A89B44
:1003600005C02F3F19F00196A11DB11D3FBFBA2F47
:10037000A92F982F8827820F911DA11DB11DBC01A7
:10038000CD0142E0660F771F881F991F4A95D1F76C
:100390000895089580E090E0089587FF0DC09CE0E7
:1003A000980F923048F0982F9B7F993F29F0803F1B
:1003B00008F4807F90E0089580E090E008959C012B
:1003C0008F7C8038910561F0203D310549F081E056
:1003D000203E310539F0203C310521F080E00895C0
:1003E00081E008950895DC01ED91FC910190F08188
:1003F000E02D09940E94510A1F920F920FB60F929E
:1004000011242F933F934F935F936F937F938F9319
:100410009F93AF93BF93EF93FF9389E391E00E9483
:100420000901FF91EF91BF91AF919F918F917F91C2
:100430006F915F914F913F912F910F900FBE0F9051
:100440001F9018951F920F920FB60F9211242F93A1
:100450008F939F93EF93FF93E0914901F0914A01AD
:100460008081E0914F01F091500182FD12C0908196
:10047000809152018F5F8F7320915301821751F049
:10048000E0915201F0E0E75CFE4F958F80935201BE
:1004900001C08081FF91EF919F918F912F910F90DB
:1004A0000FBE0F901F90189590E0FC01E857FF4F8A
:1004B0003491FC01EC53FF4F2491FC01E055FF4FB8
:1004C000E491EE2309F43BC0332339F1333091F04A
:1004D00038F43130A9F0323001F584B58F7D12C087
:1004E000373091F03830A1F03430B9F48091800089
:1004F0008F7D03C0809180008F77809380000DC036
:1005000084B58F7784BD09C08091B0008F7703C018
:100510008091B0008F7D8093B000F0E0EE0FFF1F60
:10052000E456FF4FA591B4918FB7F894EC91611107
:1005300003C020952E2301C02E2B2C938FBF08952E
:10054000CF93DF93EC0160E08E810E94540261E062
:100550008E810E94540260E08E810E9454028BE8DA
:1005600091E00197F1F7DF91CF9108951F920F92DB
:100570000FB60F9211242F933F938F939F93AF93B6
:10058000BF938091310190913201A0913301B091DC
:1005900034013091300123E0230F2D3720F40196F0
:1005A000A11DB11D05C026E8230F0296A11DB11D96
:1005B000209330018093310190933201A093330155
:1005C000B09334018091350190913601A0913701AB
:1005D000B09138010196A11DB11D80933501909312
:1005E0003601A0933701B0933801BF91AF919F912D
:1005F0008F913F912F910F900FBE0F901F901895E4
:10060000CF92DF92EF92FF920F931F93CF93DF93DE
:100610007C016C0187E0C80ED11CC0E0D0E0062F41
:1006200010E0B8010C2E02C0759567950A94E2F7A8
:100630006170F60181916F010E9454022196C430CD
:10064000D10579F7C701DF91CF911F910F91FF90ED
:10065000EF90DF90CF900C94A002CF92DF92EF92B8
:10066000FF920F931F93CF93DF93EC01F62E642F2D
:100670008C810E9454028D818F3F19F060E00E94AE
:1006800054028F850F2D10E084FF25C06E0187E096
:10069000C80ED11CE12CF12CB8010E2C02C07595AE
:1006A00067950A94E2F76170F60181916F010E94EB
:1006B0005402FFEFEF1AFF0A88E0E816F10461F731
:1006C000CE01DF91CF911F910F91FF90EF90DF90BE
:1006D000CF900C94A002B80184E0759567958A9537
:1006E000E1F7CE010E9400036F2DCE01DF91CF9183
:1006F0001F910F91FF90EF90DF90CF900C9400032B
:1007000041E00E942D0381E090E0089540E00C94C8
:100710002D0361E00E9486038BE39FE10197F1F7CF
:100720000895BF92CF92DF92EF92FF920F931F93A3
:10073000CF93DF938C01EB0161E08DE00E945402C6
:1007400081E992E00E948903E1E08091A402811195
:10075000E0E0E195F0E0EF56FD4F6489606881E9E3
:1007600092E00E9486036801C00FD11FB12C00E007
:1007700010E0CC16DD0661F17601F601608180EEB5
:10078000860F8F35D8F4BB20C9F081E992E00E9432
:1007900080030F5F1F4F0031110581F4E091A40227
:1007A000E23010F4E15001C0E1E0F0E0EF56FD4F1F
:1007B0006489606881E992E00E948603FFEFCF1AA6
:1007C000DF0AF70180818D37A1F6BB24B394D1CF26
:1007D00060E08DE0DF91CF911F910F91FF90EF903E
:1007E000DF90CF90BF900C9454026D3F71053CF4A4
:1007F0006A3F710554F4683F710589F406C09B0196
:100800002E5F31092230310550F4DC018D919C912D
:10081000DC01ED91FC910190F081E02D09940895A7
:1008200090E0FC01EC53FF4F2491FC01E055FF4F99
:100830008491882399F090E0880F991FFC01EA5574
:10084000FF4FA591B491FC01E456FF4F859194911F
:100850008FB7F894EC91E22BEC938FBF0895EF9251
:10086000FF920F931F93CF93DF93EC01623018F048
:100870008F8588608F876B8B1C8A80E48D8B80E1ED
:100880008E8B80E58F8B8C810E9410048D818F3F31
:1008900011F00E9410048E810E9410047E0187E0F6
:1008A000E80EF11C00E010E08F8584FD03C084E0B9
:1008B00090E002C088E090E00817190744F4F701BF
:1008C00081917F010E9410040F5F1F4FEDCF8BE3DA
:1008D0009DE00197F1F760E08C810E94540260E096
:1008E0008E810E9454028D818F3F19F060E00E943A
:1008F00054026F8564FD1DC063E0CE010E940003B9
:100900000BE416E4C8010197F1F763E0CE010E9401
:100910000003C8010197F1F763E0CE010E940003D4
:1009200083E592E00197F1F762E0CE010E940003B7
:1009300016C06062CE010E9486038BE496E40197A4
:10094000F1F76F856062CE010E94860383E592E035
:100950000197F1F76F856062CE010E9486036F8573
:100960006062CE010E94860384E0888B6CE0CE0139
:100970000E948603CE010E94890382E0898B66E093
:10098000CE01DF91CF911F910F91FF90EF900C94CA
:100990008603EF92FF921F93CF93DF931F92CDB701
:1009A000DEB77C01162F2150203108F04EC080E8C0
:1009B000E816F1040CF449C0A1EEEA16F104ACF516
:1009C0008091FA019091FB01DC01ED91FC916E2D7B
:1009D000622B0190F081E02D498309958091FA0105
:1009E0009091FB01DC01ED91FC91612F6F770190FB
:1009F000F081E02D0995E894E4F84981B0ECEB161C
:100A0000F10419F18091FA019091FB01DC01ED9163
:100A1000FC91642F6F770190F081E02D0F90DF91B2
:100A2000CF911F91FF90EF900994C701885F9109C2
:100A3000089758F4B7018AEF91E00F90DF91CF91BA
:100A40001F91FF90EF900C94F5030F90DF91CF91E1
:100A50001F91FF90EF900895CF93DF9300D01F92E6
:100A6000CDB7DEB7789484B5826084BD84B58160EB
:100A700084BD85B5826085BD85B5816085BD809169
:100A80006E00816080936E001092810080918100E1
:100A900082608093810080918100816080938100D9
:100AA000809180008160809380008091B10084609B
:100AB0008093B1008091B00081608093B0008091FC
:100AC0007A00846080937A0080917A0082608093BB
:100AD0007A0080917A00816080937A0080917A0018
:100AE000806880937A001092C10062E081E992E010
:100AF0000E942F0440E150E06EE171E081E992E054
:100B00000E9497008DE00E941004E091FA01F0919C
:100B1000FB01A089B18982E08C93A485B5851C92E4
:100B2000A685B7858FE38C93108EA489B58986E05E
:100B30008C93A289B3898C9180618C93A289B389AB
:100B40008C9188608C93A289B3898C9180688C93F6
:100B50000288F389E02D80818F7D80831092FC01D3
:100B60001092FE011092FD011092050210920402F3
:100B700010920302109202028FEF9FEF90930702F0
:100B800080930602909309028093080210929002CB
:100B900010920D0210920C0210920B0210920E0293
:100BA00010920F0280910A028170826081608093AE
:100BB0000A0281E993E09093E5018093E4010E94A9
:100BC000A4014B015C011CEDC12E15E0D12EE12CDE
:100BD000F12C0E94A401DC01CB0188199909AA0912
:100BE000BB09883E9340A105B10558F021E0C21A27
:100BF000D108E108F10888EE880E83E0981EA11C58
:100C0000B11CC114D104E104F10419F710920A02D5
:100C100081E992E00E94890350E8C52ED12C11E0B1
:100C200067EF262E70EF472E512CE2E0AE2EB12C4E
:100C3000F3E08F2E912CA0EF3A2E66246394712C52
:100C40000091FC01013108F0BAC18091FA01909144
:100C5000FB01DC01ED91FC910084F185E02D09950B
:100C6000892B09F4ACC18091FA019091FB01DC0160
:100C7000ED91FC910284F385E02D0995BC018B7FF9
:100C8000893F09F49CC1209104023091050221158D
:100C9000310509F0ADC06093FF01F090FD018F2D8B
:100CA00069837A830E94CD010E94DF0169818823D4
:100CB00051F067FD08C0F092FF016093000270924E
:100CC000050260920402F090FF018F2D0E94CD0179
:100CD000813F910509F45DC06CF5803B910509F4F5
:100CE0005DC06CF48039910509F458C0803A9105D3
:100CF00009F454C08038910509F0D3C04FC0803D3D
:100D0000910509F446C02CF4803C910509F441C0DA
:100D1000C8C0803E910509F441C0803F910509F0AB
:100D2000C0C0D0920302C09202021092FD01309224
:100D3000100238C0883F9105B9F044F4833F910513
:100D400041F164F1863F910579F0ABC08A3F91058E
:100D50000CF4A7C08D3F91053CF09C012E5F31093A
:100D60002230310508F09DC090930D0280930C0253
:100D700010920B0210920E0210920F02109390022A
:100D800010920502109204021092030210920202C5
:100D9000F1C0B0920302A092020204C0909203023A
:100DA00080920202209104023091050240910202D9
:100DB00050910302415051092417350708F4D3C05C
:100DC00090930D0280930C028F2D8F708F5F809314
:100DD0000B028091000280930E0210920F0210927B
:100DE000050210920402109203021092020221C026
:100DF00067FF41C0CB0199278D3F910554F48A3F8D
:100E000091056CF4873F9105B9F0883F910599F5FC
:100E100006C0AC014E5F51094230510560F5909318
:100E20000D0280930C0210920E0210920F0210928B
:100E30000B02109390029EC080911002803F89F5B2
:100E4000C9010196F901EA52FE4F22AE50920D02FD
:100E500040920C0280930E0290930F0210920B02AC
:100E60001093900210920502109204021092030255
:100E70001092020275C08091FF01F901EA52FE4F03
:100E8000803FD1F462AF4091020250910302CA0147
:100E900001972817390708F466C02091FF01203F09
:100EA00069F410920502109204021092030210924B
:100EB00002021092FD0183C061A7E5CF822F2B8330
:100EC00049835A830E94CD017C0190930D02809347
:100ED0000C020E94DF012B8149815A81882331F065
:100EE000822F8F708F5F80930B0202C010920B02D3
:100EF0008091000280930E024330510519F48091D5
:100F0000010201C080E080930F021092050210924E
:100F10000402109203021092020210939002B0EBAE
:100F2000EB16F104D1F06CF4A0E9EA16F104A9F093
:100F3000B0EAEB16F10489F080E8E816F10481F4D8
:100F40000CC0A0EDEA16F10441F0B0EEEB16F1048E
:100F500021F080ECE816F10419F42093FD010AC099
:100F60001092FD0107C02F5F3F4F30930502209381
:100F7000040225C080910C0290910D0280399105E8
:100F800029F480910F02882309F4F5C080910C02A6
:100F900090910D029C01205831092136310508F04D
:100FA000EFC020910B02201709F4EAC0002309F4D6
:100FB000E7C040910A02642F617040FD03C00E94A7
:100FC0009A013ECE842F8E7FD1F380910C029091B6
:100FD0000D029C012058310921363105F8F4209189
:100FE0000B02201719F061E0011160E0469550E016
:100FF0004230510539F04330510539F04130510547
:10100000F1F605C06623D9F202C06111D8CF409134
:101010000F0260910E020E94C904D1CFFC01E05F73
:10102000F109E031F10558F6EC5CFF4F0C944B0AE6
:10103000BC018AEF91E00E94F503C1CF80910F02BD
:1010400090E0382F222780910E02282B213831057D
:1010500010F020E830E0E12CF12CE216F30609F460
:10106000AECF8091FA019091FB01DC01ED91FC91F2
:10107000D701AA52BE4F0190F081E02DDA966C9113
:101080002B8339830995BFEFEB1AFB0A39812B813A
:10109000E4CF00910E028091FA019091FB01DC01F6
:1010A000ED91FC910190F081E02D63EF09950F77B0
:1010B000602F70E08091FA019091FB010E94F30192
:1010C0007ECF90910F02B0E89B9F70011124809118
:1010D0000E02E82A8091FA019091FB01DC01ED916A
:1010E000FC910190F081E02D62EF09958091FA0169
:1010F0009091FB01DC01ED91FC91B7016F777727AF
:101100000190F081E02D09958091FA019091FB0109
:10111000DC01ED91FC91B701660F672F661F770B1D
:1011200071956F7777270190F081E02D22C0809133
:101130000E028770B0E18B9FC001112400910F0255
:101140000F70082B8091FA019091FB01DC01ED9169
:10115000FC910190F081E02D61EF09958091FA01F9
:101160009091FB01DC01ED91FC910190F081E02D6B
:10117000602F099524CFD0920D02C0920C0206CFA9
:10118000813F9105C1F4E091E601F091E7010CC0C7
:101190008B3F91050CF0C8C0833F910509F0A5C0B5
:1011A000E091EA01F091EB01309709F402CF8091D0
:1011B0000E020995FECE823F91050CF080C0803B67
:1011C0009105C1F4E091DC01F091DD0108C08038A7
:1011D000910509F0EECEE091D601F091D70130975C
:1011E00009F4E7CE40910F0260910E0280910B024C
:1011F0000995DFCE813B910584F48039910529F46E
:10120000E091D801F091D901EACF803A9105F9F641
:10121000E091DA01F091DB01E2CF803D910529F404
:10122000E091E001F091E1010BC0813D91058CF46A
:10123000803C910509F0BDCEE091DE01F091DF0127
:10124000309709F4B6CE60910E0280910B02099599
:10125000B0CE803E9105B9F4E091E201F091E30156
:10126000309709F4A6CE60910F026F77A0E86A9FCD
:10127000B001112480910E028F77682B70528091FB
:101280000B02099596CE803F910509F092CEE09130
:10129000E401F091E501309709F48BCE60910F02E3
:1012A00070E0762F662780910E02682B61387105F9
:1012B00010F060E870E080E192E009957ACE8A3F14
:1012C000910509F065CFE091F001F091F10108C0BE
:1012D000883F910509F06DCEE091EE01F091EF01AC
:1012E000309709F466CE099564CE833F9105A4F446
:1012F000E091E801F091E901309709F45ACE80912C
:101300000F028F77B0E88B9FC001112420910E024D
:101310002F77822B09954DCE863F9105C9F6E09136
:10132000EC01F091ED01DCCF8C3F910529F4E091C7
:10133000F401F091F501D4CF8C3F91052CF4E091AC
:10134000F201F091F301CCCF8E3F910529F4E091A9
:10135000F601F091F701C4CF8F3F910509F029CE36
:10136000E091F801F091F901BBCFCF93DF93C9E38E
:10137000D1E01B821A8288EE93E0A0E0B0E08C837B
:101380009D83AE83BF8384E091E09983888385EC5D
:1013900090E09D878C8784EC90E09F878E8780EC1F
:1013A00090E0998B888B81EC90E09B8B8A8B82EC10
:1013B00090E09D8B8C8B86EC90E09F8B8E8B198EB2
:1013C0001A8E1B8E1C8EE1E9F2E01382128286E1F6
:1013D00091E09183808382E084838FEF858383E033
:1013E000868384E0878385E0808786E0818787E045
:1013F00082871386148615861686178661E0CF01CC
:101400000E942F04E6EDF1E0D5A3C4A316A217A213
:1014100010A615A614A617A616A68FEF9FEF91ABE0
:1014200080AB93AB82AB83E080930A0215AA17AA24
:1014300016AA10AE11AE1092900280E8A0E1B2E0C0
:10144000ED0119928A95E9F71182108213821282B6
:1014500015821482178216821186108613861286D0
:101460001586148617861686118A108A138A128AA0
:10147000158A148A178A168A118E108E138E128E70
:10148000158E148E178E168E11A210A213A212A200
:10149000DF91CF910895EE0FFF1F0590F491E02D9D
:1014A000099481E090E0F8940C94560AF894FFCFE8
:1014B000000000002B019700C2007801F300D1006A
:1014C000E5000000000080039700CA01C9014D69D2
:1014D000646953746F707320696E69742E2E0000F6
:00000001FF
