:100000000C945D000C9485000C9485000C94850084
:100010000C9485000C9485000C9485000C9485004C
:100020000C9485000C9485000C9485000C9485003C
:100030000C9485000C9485000C9485000C9485002C
:100040000C9467020C9485000C9485000C94850038
:100050000C9485000C9485000C9485000C9485000C
:100060000C9485000C94850000000008000201003B
:100070000003040700000000000000000000000072
:10008000250028002B0000000000240027002A0083
:10009000040404040404040402020202020203032E
:1000A0000303030301020408102040800102040836
:1000B0001020010204081020320311241FBECFEFCC
:1000C000D8E0DEBFCDBF11E0A0E0B1E0EAEBF6E0A2
:1000D00002C005900D92A831B107D9F721E0A8E13F
:1000E000B1E001C01D92A933B207E1F710E0CDE500
:1000F000D0E004C02197FE010E945003CC35D10707
:10010000C9F70E94B1020C945B030C94000090E0CC
:10011000FC01EC55FF4F2491FC01E057FF4F849107
:10012000882399F090E0880F991FFC01EA57FF4F50
:10013000A591B491FC01E458FF4F859194918FB73C
:10014000F894EC91E22BEC938FBF089590E0FC01C2
:10015000E859FF4F2491FC01EC55FF4F3491FC010D
:10016000E057FF4FE491EE2309F43CC0222339F11C
:10017000233091F038F42130A9F0223001F584B514
:100180008F7D12C0273091F02830A1F02430B9F4CF
:10019000809180008F7D03C0809180008F77809355
:1001A00080000DC084B58F7784BD09C08091B000F8
:1001B0008F7703C08091B0008F7D8093B000F0E016
:1001C000EE0FFF1FE458FF4FA591B4919FB7F8942D
:1001D000611104C08C913095382302C0EC913E2B04
:1001E0003C939FBF0895CF92DF92EF92FF920F93BF
:1001F0001F93CF93DF936C017A018B01C0E0D0E0B5
:10020000CE15DF0581F0D8016D918D01D601ED91FC
:10021000FC910190F081E02DC6010995892B11F028
:100220002196EECF7E01C701DF91CF911F910F91F3
:10023000FF90EF90DF90CF900895CF93DF93EC0184
:1002400060E08E810E94A60061E08E810E94A6007F
:1002500060E08E810E94A6008BE891E00197F1F7A3
:10026000DF91CF910895CF92DF92EF92FF920F939B
:100270001F93CF93DF936C017C0187E0E80EF11CA4
:10028000C0E0D0E0062F10E0B8010C2E02C075953A
:1002900067950A94E2F76170F70181917F010E94EE
:1002A000A6002196C430D10579F7C601DF91CF9120
:1002B0001F910F91FF90EF90DF90CF900C941D0154
:1002C000CF92DF92EF92FF920F931F93CF93DF9322
:1002D000EC01F62E642F8C810E94A6008D818F3F49
:1002E00019F060E00E94A6008F850F2D10E084FFBA
:1002F00025C06E0187E0C80ED11CE12CF12CB8019D
:100300000E2C02C0759567950A94E2F76170F601AC
:1003100081916F010E94A600FFEFEF1AFF0A88E0AB
:10032000E816F10461F7CE01DF91CF911F910F9193
:10033000FF90EF90DF90CF900C941D01B80184E006
:10034000759567958A95E1F7CE010E9433016F2D6F
:10035000CE01DF91CF911F910F91FF90EF90DF9031
:10036000CF900C94330140E0682F81E291E00C942F
:100370006001CF93DF93823028F090913001986034
:1003800090933001809334011092350180E4809382
:10039000360180E18093370180E5809338018091B8
:1003A00025010E948700809126018F3F11F00E9455
:1003B0008700809127010E948700C1E2D1E09E0161
:1003C000215231408091300184FD03C084E090E0EF
:1003D00002C088E090E021962817390724F48E8126
:1003E0000E948700ECCF8BE39DE00197F1F760E07E
:1003F000809125010E94A60060E0809127010E9463
:10040000A600809126018F3F19F060E00E94A600AF
:100410008091300184FD20C063E081E291E00E9480
:100420003301CBE4D6E4CE010197F1F763E081E23A
:1004300091E00E9433012197F1F763E081E291E0BE
:100440000E94330183E592E00197F1F762E081E2D7
:1004500091E00E94330115C080620E94B3018BE4D9
:1004600096E40197F1F78091300180620E94B30118
:1004700083E592E00197F1F78091300180620E945C
:10048000B3018091300180620E94B30184E08093C7
:1004900031018CE00E94B30181E00E94B3018BE343
:1004A0009FE10197F1F782E08093320186E0DF91CE
:1004B000CF910C94B30141E00E94600181E090E093
:1004C0000895089580E090E008950E9456031F92D9
:1004D0000F920FB60F9211242F933F938F939F93F8
:1004E000AF93BF9380911D0190911E01A0911F01B8
:1004F000B091200130911C0123E0230F2D3720F40F
:100500000196A11DB11D05C026E8230F0296A11D6D
:10051000B11D20931C0180931D0190931E01A09397
:100520001F01B09320018091180190911901A091B1
:100530001A01B0911B010196A11DB11D80931801F4
:1005400090931901A0931A01B0931B01BF91AF9131
:100550009F918F913F912F910F900FBE0F901F9001
:100560001895789484B5826084BD84B5816084BD1B
:1005700085B5826085BD85B5816085BD80916E0041
:10058000816080936E001092810080918100826072
:1005900080938100809181008160809381008091AF
:1005A00080008160809380008091B100846080939E
:1005B000B1008091B00081608093B00080917A009A
:1005C000846080937A0080917A00826080937A00C0
:1005D00080917A00816080937A0080917A008068AF
:1005E00080937A001092C10082E00E94B901E1E09C
:1005F000809134018111E0E0E195F0E0EF5DFE4F84
:10060000848980680E94B30144E050E06CE071E0AE
:1006100081E291E00E94F300E0913401E23010F4B5
:10062000E15001C0E1E0F0E0EF5DFE4F84898068B9
:100630000E94B30146E050E061E171E081E291E0A7
:100640000E94F30080913101982F926090933101C4
:100650008A600E94B301C0E0D0E02097F1F30E94CD
:100660000000FBCFE1E2F1E01382128284E091E02E
:100670009183808382E084838FEF858383E0868308
:1006800084E0878385E0808786E0818787E08287B2
:100690001386148615861686178681E00C94B90198
:1006A000EE0FFF1F0590F491E02D099481E090E09A
:0A06B000F8940C945B03F894FFCF5C
:1006BA00000000005B02F30062026102437A653FB8
:0806CA00003F756B61737A00BB
:00000001FF
